:020000040000fa
:020000040040ba
:10000000f0ff43201d2a4000d33c40006f4b4000ce
:10001000474e4000974f4000175540000000000039
:10002000000000000000000000000000215d400012
:100030005b4d400000000000b1514000715a40008b
:100040007b1d40007b1d40007b1d40007b1d400050
:100050007b1d40007b1d40007b1d40007b1d400040
:100060007b1d4000000000007b1d40007b1d400008
:10007000000000007b1d40007b1d40007b1d4000f8
:100080007b1d4000000000007b1d400069254000f2
:100090007b1d40007b1d40007b1d40007b1d400000
:1000a0007b1d40007b1d40007b1d40007b1d4000f0
:1000b0007b1d40007b1d40007b1d40007b1d4000e0
:1000c0007b1d40007b1d4000d96040000000000007
:1000d0000000000000000000000000000000000020
:1000e0007b1d400001274000000000007b1d4000f8
:1000f0007b1d40007b1d40007b1d40007b1d4000a0
:100100007b1d40007b1d40007b1d40007b1d40008f
:100110007b1d400000000000000000000000000007
:100120007b1d40007b1d4000ed4b40007b1d4000cf
:100130007b1d40007b1d4000000000007b1d400037
:100140007b1d40007b1d40000000000000000000ff
:080150007b1d40007b1d4000f7
:020000040000fa
:020000040040ba
:1001580008b10181b0b000840000000008b101813d
:10016800b0b000840000000008b10181b0b0008484
:1001780000000000f8b500bff8bc08bc9e467047f8
:1001880029574000f8b500bff8bc08bc9e46704728
:0401980005574000c7
:020000040000fa
:020000040040ba
:10019c0038010000010000004201000001000000d5
:1001ac009801000001000000b8010000b0a9028015
:1001bc0044020000b0b0a8808802000001000000da
:1001cc008a0200000100000086020000010000000d
:1001dc0080020000b0b0aa80b2020000af72b28000
:1001ec0052030000010000004e030000aa3f3780bc
:1001fc0092030000010000009e030000b0b0aa8032
:10020c00d603000001000000dc0300000100000028
:10021c00d603000001000000da030000010000001a
:10022c00fc030000010000000c04000001000000b1
:10023c002e040000010000003e040000aa0db28054
:10024c0096040000b0af0680d0060000010000004c
:10025c00cc06000001000000c806000001000000f0
:10026c00c4060000ac3f01801c1800000100000017
:10027c0042180000008404805218000001000000a5
:10028c004c180000b0af0480941a0000b0a8038092
:10029c00b61a0000c4feff7fb81a0000c8feff7f2c
:1002ac00c21a000001000000c01a0000010000008a
:1002bc00c45d000001000000725e000090feff7f34
:0802cc00b85e00000100000013
:020000040000fa
:020000040040ba
:1002d40003685a004cbf43f0004323f00043184422
:1002e40070472de9f0470746164619b301f1ff3868
:1002f400c1464ff0000a0aeb090404ebd4746410fd
:10030400e50079190846fff7e3ffa04515d0b04290
:1003140004d9a2450dd004f1ff39ece705f108003a
:100324003844fff7d5ff0138b04203d204f1010a83
:10033400e1e700210846bde8f087b042e9d8f9e7d3
:10034400012806d0022806d00028044818bf00203f
:100354007047034870470348704700bf25094000b1
:10036400290940002d094000214b37b504468d1e54
:100374004bb101a92846aff3008048b9002323619b
:10038400092003b030bd1b481b4b1b1adb10019323
:1003940001992a46fff7a5ff01460028eed0fff792
:1003a40097ff4b68a064012b03d100232361052030
:1003b400e7e7002b01f1040010dae0640123e06cac
:1003c40023650368002b0edac3f30360fff7b8ff5d
:1003d4000028206114bf00200920d2e7fff778ff2e
:1003e4000023e064ebe7fff773ff20610020c8e718
:1003f400000000009c014000d40240000368da07ba
:1004040010b5044605d49b0700f1480018d501f047
:10041400e7ff2368590703d404f1d00001f0e8ff93
:1004240023681a0703d404f5a87001f0e9ff2368d0
:10043400db0608d404f5e870bde8104002f024b8e7
:1004440001f0c6ffe5e710bd036803b10344184695
:10045400704709207047704770b505460c46216cfb
:100464002846fff781ff064608b105f069fe236cb4
:100474006b6122462b692946012098470828eed053
:100484000728f2d13046216cfff7e5ff201d01f06b
:1004940093ff2de9f04fadf5737d02acd0f80ca0bd
:1004a400d0f818b0054690460431402203a800272e
:1004b40005f004fd4ff4f0792760216c2846fff71e
:1004c40053ffb8f1000f14bf4ff00a084ff00908aa
:1004d400064640bb236c6b614a4621467aa805f068
:1004e400edfc2b697aaa294640469847889b074623
:1004f40063642a46cde9004b2b4641460120d04790
:10050400a8b9aeb94a467aa9204605f0d7fc082f07
:10051400b046d2d0072f0ad13046216cfff79bff9b
:1005240003a801f049ff48f01008a36be0e709268f
:1005340030460df5737dbde8f08f406c704770b5a3
:10054400cb6b0b64f8b004460d464022043101a87d
:1005540005f0b4fc4ff0ff33009310992046fff7e9
:1005640003ff78b923696a46214698470828064656
:10057400f3d06846fff742ff062e03d129462046f2
:10058400fff76aff092078b070bd10b48261da6b9e
:10059400c1605df8044b1a641946002279e770b50e
:1005a400c66843690b6404460d4626b10122fff771
:1005b40070ff05f0c5fd03690a460146022098470d
:1005c400072805d00828f4d129462046fff744ff20
:1005d4003046296cfff73fff281d01f0edfec2688d
:1005e40002b9ace7ca6b0a64002252e77047836819
:1005f40001460bb1012018477047042910d8dfe8e1
:1006040001f0030d0f0d0d0053b90f2a08d800ebac
:100614008200009a41681160184670470123fbe785
:100624000223f9e71fb503ab009300230a461946da
:10063400fff7e3ff039805b05df804fb042910d825
:10064400dfe801f0030d0f0d0d0053b90f2a08d890
:10065400009900eb82000968416018467047012345
:10066400fbe70223f9e71fb503ab009300230392d2
:100674000a461946fff7e2ff05b05df804fb70b5c2
:10068400d36b1364adf50e7d0e461146054640222c
:10069400043117a805f012fc4ff0ff331693269986
:1006a4006846fff761fe90b90c2116a86a46fff769
:1006b400daff314616a8a84748b9049b16aa69462a
:1006c400082098470528044602d00928e7d10924c0
:1006d40016a8fff793fe20460df50e7d70bd2de99b
:1006e400f04fce6c87b0174656f8042b04960d468f
:1006f40000f00309009323bb120203230392adf815
:1007040014302b6db9f1020f08bfae6b13f0010862
:1007140000f0fd804ff0000803a9384601f0daf933
:1007240000285ed1b8f1000f00f0f5800f213846a3
:10073400fff778ff0e2102463846fff794ff774a09
:100744001de0130c12048df815300392dbb2022263
:100754008df8142006eb8306d3e7002334e0341d20
:10076400b9f1000f0dd063b13046fff7b1fdac63b2
:1007740006462846aff30080002832d032460f21c7
:1007840072e02646d6f800a0baf1000fc4d0009b50
:10079400aa6c022b0ebf74687488b6f800a024f00b
:1007a40001034ff00f0138460cbf0836043603eb43
:1007b400020bfff737ff8345cfd82af001035b44d0
:1007c400834294bf00230123600000f002000af07a
:1007d400010a40ea0a04012c07d0002cbfd0022ce5
:1007e40049d0092007b0bde8f08fb9f1000f27d137
:1007f400002b3ed073683268991c4fead272f0d055
:1008040005f158010133029109d0301dfff71cfe98
:1008140002ab01462846aff30080044648b30d21dd
:100824003846fff7fffe022c2862029a04d12b46b9
:1008340043f82c2f6b6200e06a62ae620620d1e7b7
:100844000d2138462c6afff7edfe844211d1ab6ac4
:100854009e420ed13046fff73bfd0f21024638463b
:10086400fff701ff2a4600213846fff7fcfe072068
:10087400b8e7083686e7346824f00044b9f1000f7d
:1008840028d1fbb1019b3bb1e4b90d213846fff7f8
:10089400c9fe029b2862cde7ddf804a005f1580be0
:1008a400a245f2d00af1010a06eb8a00cdf808b09d
:1008b400fff7cafd02ab014600222846aff30080d1
:1008c4000028edd03368002bb8bf0436013406eba2
:1008d400840657e70d213846d5f820a0fff7a2fe7d
:1008e4008245efd1ab6a9e42ecd14ff0000804235d
:1008f400c5e90b83f318ac626b633368434503dad1
:10090400601c06eb8000a6e74ff00108dae700f070
:100914000803019336e7082064e700bf00000000e5
:100924000023dce60123dae60223d8e62de9f041d0
:100934000546c2b014469846042900f2bc80dfe89c
:1009440011f005002000ba00b200df00b8f1000f7a
:1009540040f0b18091b2836b424601202e1d00fa13
:1009640002f70f421cbf53f8047b46f82270013291
:10097400102af4d1a10400d4ab63404642b0bde8d0
:10098400f08108f0fb03012b4fea124694b240f0c9
:100994009280b8f1010f06eb040740f0d780102fc6
:1009a40000f289800f2e00f28680002705e0102fc8
:1009b400fbd9b8f1050f7ed1103f2b68da070cd5af
:1009c400284623f00102b8f1050f40f8482b18d14e
:1009d40042f002022a6001f007fd4fb12b6858076c
:1009e40006d5284623f0040340f8d03b01f004fd6b
:1009f400b8f1010f0bd120a801f0eefc8fb900274c
:100a040011e023f003032b6001f0e6fce5e70f2e71
:100a140002d820a801f0e8fc002ff0d0684601f0cd
:100a2400ebfcc6f11004ab6b002c19460bdd20aabd
:100a340002ebc602e1005018a3eb020c824202eb67
:100a44000c041cd1194467b1102e334642aa38bf96
:100a5400102302ebc303a3f5c67301ebc702914253
:100a640011d1b8f1010f08bf0431b8f1010fa96326
:100a74000ed120a801f0acfc4ff000087de72468fb
:100a840042f8044bdae751f8040b43f8040fe6e7a5
:100a94000f2e02d820a801f0a3fc002fecd068464a
:100aa40001f0a6fce8e7b8f1030f04d1160c94b2e8
:100ab4003319102b02d94ff002085ee703681907b7
:100ac40006d523f00803036000f5a87001f0bafc12
:100ad40020a801f0b7fcaa6b20ab03ebc603e4002b
:100ae4001919d61a8b4203eb060005d11444ac63e2
:100af40020a801f085fcbfe7006843f8040bf1e788
:100b0400b8f1000fd7d1102ad5d80368da0606d574
:100b140023f01003036000f5e87001f0bffc20ae81
:100b2400304601f0bbfcab6b0022012101fa02f05c
:100b340020421cbf53f8040b46f822000132042a59
:100b4400f4d1ab63304601f09ffc16e7202fb2d8f6
:100b54000f2e7ff62caf2746002c3ff450afb8f190
:080b6400050fa8d13ae700bf1c
:020000040000fa
:020000040040ba
:100b6c002de9f04f83b08346046d636813f0040fd6
:100b7c000cd0236913f0040f08d00423a360d0f821
:100b8c00d43000220721d0f8d0009847636813f0c6
:100b9c00020f05d0236913f0020f01d00223a360ca
:100bac00636813f0010f20d0236913f0010f1cd0e0
:100bbc00dbf8d43000220421dbf8d0009847d4f8bd
:100bcc00003823f48043c4f80038d4f8043813f404
:100bdc00804ffad00123a36063611023a361d4f882
:100bec00003843f48043c4f80038636813f0100fe6
:100bfc001ad0236913f0100f16d0dbf8d430002272
:100c0c000321dbf8d0009847d4f8003823f4804354
:100c1c00c4f80038d4f8043813f4804ffad01023f9
:100c2c00a36063610123a361636813f0080f2cd0e8
:100c3c00236913f0080f28d0d4f8003823f480432c
:100c4c00c4f80038d4f8043813f4804ffad00022da
:100c5c008bf84d20d4f80438c3f30133bd49cb5c79
:100c6c008bf8b830dbf8d4300221dbf8d000984791
:100c7c000823a3601023a3600123a360a361d4f80d
:100c8c00003823f48043c4f80038636813f48053ad
:100c9c00009300f08d81d4f83071d4f8c061dbf88a
:100cac00005117f0400f0bd04ff40023c4f8203242
:100cbc00eb7923f00203eb71eb7c23f00203eb7472
:100ccc0016f0040f3bd017f0040f38d0eb7923f05b
:100cdc000203eb71eb7c23f00203eb742868002811
:100cec0000f08980d0f800e0bff34f8f9a4a9b4bfd
:100cfc00c3f85c22bff34f8fbff36f8f0ef1ff3140
:100d0c00dff860c2134613f8012b01f8012f1a46c5
:100d1c006345f7d10423c4f86031bef806309ef861
:100d2c0000100222027208224260002b5bd10723c2
:100d3c008bf84d3083692b60c36803b1984716f06c
:100d4c00010f6cd017f0010f69d0e8689bf84d309b
:100d5c00092b57d0036a002b40f0be80027c12f0a6
:100d6c00800f40f0a28012f0020f00f0a780816982
:100d7c00002900f0a38022f0020202740022027209
:100d8c00e96004220a72d1f820e0288a704528bf55
:100d9c007046d1f800c04a68a2eb0e0ed0b16e4a74
:100dac00634413f80e3002f8013b93b28342f7d33d
:100dbc00bff34f8f684bdff8a4e19c468444cef818
:100dcc0068322033aceb0302002af8dcbff34f8f00
:100ddc00bff36f8f0b6a1b1a0b620123c4f86031cf
:100dec00c4f8f0311be011f0800f14bf062301236f
:100dfc008bf84d309ee703238bf84d300423c4f859
:100e0c0020329ce7002303728bf84d308269ea6034
:100e1c004360c36803b198470123c4f8203216f02d
:100e2c00020f00f0ae8017f0020f00f0aa802868c5
:100e3c009bf84d30082b7ed0002800f09c80d4f815
:100e4c003011c1f30a51d0f820c00ceb01024368f9
:100e5c009a4200f296800768d1b1bff34f8f4b1eb8
:100e6c0023f01f033e4a1a443b4b3c4ec6f85c32ff
:100e7c0020339a42fad1bff34f8fbff36f8f364bab
:100e8c000022674413f8016bbe549ab28a42f9d31c
:100e9c00036a0b4403624268934275d2ae888e4259
:100eac0072d80223c4f860316be002f07f02027446
:100ebc000123c4f86031c4f8f031b0e708238bf893
:100ecc004d30002303728369eb60c36803b198470c
:100edc000123c4f82032a2e7298a994228bf194677
:100eec004268a2eb030ce9b1d0f800e01a4b0022e7
:100efc00724412f80c2003f8012b9ab28a42f7d3f1
:100f0c00bff34f8f144bdff854e09c468c44cef863
:100f1c0068322033aceb0302002af8dcbff34f8fae
:100f2c00bff36f8f036a5b1a03620123c4f860314d
:100f3c00c4f8f03173e7b8b1002303728bf84d306d
:100f4c000222c4f8602182692a604360c368c3b17d
:100f5c00984716e0b8614000000010a000ed00e0da
:100f6c00200010a0080010a005238bf84d300223a0
:100f7c00c4f8203205e004238bf84d300223c4f86a
:100f8c00203203b0bde8f08f93422cbf0023012325
:100f9c00037206238bf84d300223c4f86031836949
:100fac002b60036a4360c368002bead09847e8e7dc
:100fbc000125b7e0d6f83011c1f30a51036801934b
:100fcc004feac53a9a4a5244d0f820c043680ceb19
:100fdc00010e9e4588bfa3eb0c0100293ddd944b0f
:100fec005344bff34f8f01f1ff3e2ef01f0e0af159
:100ffc00204a0af5801a0af1200af24496468d4ad4
:10100c00c2f85c3220339a45f9d17246bff34f8f48
:10101c00bff36f8fddf800e04ff0000a019b6344d3
:10102c009c46534612f801ab0cf80ea001339bb250
:10103c009e468b42f6d3036a0b440362426893428a
:10104c000ed2b9f804308b421cd80223c6f860319a
:10105c004ff48043c6f8203282e00029dad1eae767
:10106c00002303728369c9f80030036a4360c368c4
:10107c0003b198470223c6f860314ff48043c6f899
:10108c0020326de0012303728023c6f86031e9e75a
:10109c0003f07f0303740123c6f86031c6f8f03106
:1010ac004ff48043c6f8203238e0b9f804e0be456e
:1010bc0028bfbe46d0f800804368df1be903dff889
:1010cc0070c18c44bef1000f1bd0009a0023424427
:1010dc00d25d0cf8012b01339bb21a467345f6d343
:1010ec00534bcb18bff34f8f03eb0e01514ac2f891
:1010fc0068322033ca1a002af8dcbff34f8fbff3d3
:10110c006f8f036aa3eb0e0303620123c6f86031f1
:10111c004ff48042c6f82022c6f8f0310135062d76
:10112c003ff42faf62684ff48053ab401342f5d0bd
:10113c0004eb8506d6f83081d6f8c0710bf58073b8
:10114c0053f8259017f0020f0ad018f0020f07d0b1
:10115c00d9f8000000287ff42daf0223c6f8203206
:10116c0017f0010fdad018f0010fd7d0d9f8000022
:10117c000028d3d0076a002f97d1037c13f0800f7f
:10118c0086d1002303728369c9f80030c36803b1a8
:10119c009847d9f800e0bef1000f05d10123c6f83d
:1011ac006031c6f82032b9e7def82020b9f8040027
:1011bc00904238bf1046def80090def80430a3eb06
:1011cc00020c4feac5381a4a424410b300234f446c
:1011dc0017f80c1002f8011b01339bb21f46984202
:1011ec00f5d8134b4344bff34f8f421e22f01f021e
:1011fc0008f1204808f5801808f1200842440d49f0
:10120c00c1f8683220339a42f9d1bff34f8fbff344
:10121c006f8fdef820301b1acef820300123c6f871
:10122c0060314ff48042c6f82022c6f8f03175e7e1
:08123c00000010a000ed00e02d
:020000040000fa
:020000040040ba
:10124400b0f1ff3f00f039822de9f04701f00f08bb
:101254004eb292f90830022b00f33282b8f1050f36
:1012640000f23182d0f850a008f1400350f8237006
:10127400b8f1000f04d1002eb4bf0c2300231f4487
:10128400fb7913f0010f00f02182144605465268e1
:10129400b988b2fbf1f301fb1323002b6dd1002eaf
:1012a40051db90f8b020002a57d00022a26103211c
:1012b4002172914623623a68002a40f0da813c6048
:1012c4000023e36104232372b8f1000f40f03e8150
:1012d400002ec0f2ec8095f84d30042b6ed0052b17
:1012e40000f0d380032b40f0cb812668bff34f8fef
:1012f400914a924bc3f85c22bff34f8fbff36f8fb9
:10130400711e8f48134613f8012b01f8012f1a465a
:101314008342f7d1236a083323620423caf8603175
:10132400caf8f031f388002b3fd1072385f84d30fc
:10133400a3693b6000232372e368002b00f0a081c3
:10134400204698479ce1237c13f0010f00d082b91a
:1013540095f8b030002b40f0cc814ff6ff7105f1c9
:10136400580004f071fd012800f0b6816ff07e0092
:101374008ee163f07f032374eae7002ee8db90f844
:10138400b03013b16ff07c0082e14ff6ff7105f1cc
:10139400580004f059fd012840f09b8195f955004f
:1013a40004f08cf96ff07c0072e196f90030002ba8
:1013b400b4bf0623012385f84d30b9e7daf83021ac
:1013c400c2f30a52d4f820c00ceb020163689942bc
:1013d40000f2568121688ab1bff34f8f531e23f068
:1013e4001f0358481844544b544ec6f85c322033fb
:1013f4009842fad1bff34f8fbff36f8f62b10cf1f4
:10140400ff3c61444c48034613f8010b01f8010ffb
:1014140018469bb29a42f6d8236a13442362616841
:101424008b4214d300232372092385f84d30022301
:10143400caf86031caf8f031236a6360a3693b607b
:10144400e368002b00f01c812046984718e1bb8814
:10145400934214d901232372092385f84d300223c2
:10146400caf86031caf8f031236a6360a3693b604b
:10147400e368002b00f004812046984700e1022332
:10148400caf86031caf8f031fae0002385f84d302b
:1014940023720223caf86031caf8f031a3693b60b1
:1014a400e368002b00f0ec8020469847e8e095f8cc
:1014b4004d30062b0bd0072b40f0e280092385f832
:1014c4004d300123caf86031caf8f031d8e0236afc
:1014d400bf88bb4238bf9fb22268efb1531e7e1e45
:1014e40012fa86f61848801ac21813f8011f1170f0
:1014f400b342f9d1bff34f8f7b1e23f01f03114a70
:101504001a440d4b0d49c1f8683220339342fad185
:10151400bff34f8fbff36f8f236adb1b23620a2352
:1015240085f84d300123caf860314ff48042caf87f
:101534002022caf8f031a3e0000010a000ed00e082
:10154400080010a0200010a0010010a0002e56dbff
:101554000aeb880adaf8303113f0020f00f09080b9
:10156400daf83001c0f30a50654b03ebc838226a3d
:1015740063688118994201d99b1a98b2226890b184
:101584004346bff34f8f411e21f01f0108f120068f
:1015940031445c4ec6f85c3220338b42fad1bff33f
:1015a4004f8fbff36f8f50b1531e411e89b201316b
:1015b400414418f8012b03f8012f8845f9d1236a17
:1015c400034423626268934202d2ba8882420cd9ed
:1015d400ba88824294bf0020012020726360a3690c
:1015e4003b60e3680bb1204698470223caf8603198
:1015f400caf8f0314ff48043caf8203240e00aebd5
:10160400880a0123caf86031236abe88b34238bf0e
:101614009eb23b4b03ebc8382168f6b14b1e08f170
:10162400ff32701e11fa80f013f8011f02f8011f37
:101634008342f9d14346bff34f8f721e22f01f023b
:1016440008f1200842442f49c1f8683220339342fc
:10165400fad1bff34f8fbff36f8f236a9b1b2362b3
:101664004ff48043caf820320123caf8f03107e06e
:101674001a469369002bfbd19461e2610323237220
:1016840095f8b030012b02d0b9f1000f02d100203f
:10169400bde8f08795f95530002b08db590903f0b4
:1016a4001f03012202fa03f3174a42f8213005f11d
:1016b400580004f041fc0020eae76ff07c0070471a
:1016c4006ff07a00e4e76ff07b00e1e76ff07500fc
:1016d400dee76ff07e00dbe795f9550003f0eeffdf
:1016e40081460023a36103232372002e06db00231b
:1016f400e0e50023a3610322227299466368d9e5d9
:0c170400000010a000ed00e000e100e09b
:020000040000fa
:020000040040ba
:101710004ca640201c0000000000000068a64020ed
:101720000c000000000000002ca540202800000054
:101730000100000084a640204500000000000000d9
:10174000010000000000000008000000000100008f
:1017500024c0084020c008403a10000084a6402061
:101760000400000001000000f55e400088a6402053
:10177000040000000000000004a04020540100000c
:10178000000000008ca640200400000000000000c3
:1017900090a64020040000000000000094a6402015
:1017a0000400000000000000b0a440204000000041
:1017b0000000000098a64020040000000000000087
:1017c00074a640200800000000000000c8a34020cc
:1017d000540000000000000074a2402090000000af
:1017e0000000000058a140201c0100000000000083
:1017f00028a640201800000000000000f0a44020af
:101800003c000000000000001ca44020500000002c
:1018100001000000315840001d6040003160400070
:101820008d5d400029614000b56140009942400053
:10183000d5414000492e400055364000d53c40007f
:10184000613f4000615c40006b5e4000451240001b
:101850000000000081464000875e4000f35f4000ca
:10186000893e400054a540202800000000000000f0
:101870006ca44020440000000000000040a640206e
:101880000a000000000000007ca6402008000000c4
:10189000000000007ca5402028000000000000009f
:1018a0009ca640200400000000000000a0a64020ec
:1018b0000400000000000000a4a640200400000076
:1018c0000000000004a340206400000000000000ad
:1018d000a8a640200400000000000000aca64020a4
:1018e0000400000000000000b0a64020040000003a
:1018f00000000000b4a6402004000000000000002a
:10190000b8a640200400000000000000c4a540204c
:101910001400000000000000d8a5402014000000c2
:1019200000000000bca640200400000000000000f1
:10193000c0a640200400000000000000c4a6402013
:101940000400000000000000c8a6402004000000c1
:1019500000000000eca54020140000000000000082
:10196000cca64020040000000000000000a640209b
:10197000140000000000000014a640201400000025
:1019800000000000d0a6402004000000000000007d
:10199000d4a640200400000000000000d8a640208b
:1019a00004000000000000000400402000a000002f
:1019b00000000000dca64020040000000000000041
:1019c000e0a640200400000001000000aaaaaaaa84
:1019d000e4a640200400000000000000a4a5402070
:1019e0002000000000000000f0a6402001000000e0
:1019f00000000000e8a640200400000000000000f5
:101a0000eca64020040000000100000068a3402074
:101a100068a34020600000000100000000000000fa
:101a200000000000000000000000000000000000b6
:101a300000000000000000000000000000000000a6
:101a40000000000000000000000000000000000096
:101a50000000000000000000000000000000000086
:101a60000000000000000000000000000000000076
:101a70000000000000000000000000000000402006
:101a80000400000000000000000000000000000052
:020000040000fa
:020000040040ba
:101a9000027a03467ab9427a7ab1013a42724268ce
:101aa000111d126802604160032202721a68100e52
:101ab00012021a607047013af7e7b02070471fb56d
:101ac00003ab009300230c221946fef798fd039800
:101ad00005b05df804fbf2e72de9f04f044685b050
:101ae0000e4600254ff47f684ff6ff793046fff72a
:101af000cfffb028824611d175b903ae2b460e2216
:101b0000294600962046fef77afd00962b460f22c6
:101b100029462046fef794fd00202ee002061dd443
:101b2000002303af4fea800b194600970d22204691
:101b3000fef765fd5ffa8bfb039b0bf1040b1af0bc
:101b4000400f14bfa3eb0b035b44039300970023e8
:101b50000d2219462046fef773fdc7e700f0f0039b
:101b6000802b1dd14fea002a3046fff791ff40ea53
:101b70000a0abaf5004f03d1092005b0bde8f08f7d
:101b80004fea0a1a00230aea090219462046fef71c
:101b9000cffe0028f0d11af4004f18bf0125a5e7a9
:101ba000902b0dd100f00d030d2be5d003af0023da
:101bb00000f00f02009719462046fef720fdc5e70a
:101bc000a02b12d1c24302f0070248fa02f2030727
:101bd00002f47f6248bf42f4804200231946204647
:101be000fef7a6fe002881d0c6e7b02b48d1b12869
:101bf00009d13046fff74cff02460028bcd010f058
:101c0000f003ebd0b8e7b22821d1002303af0d22b7
:101c1000194600972046fef7f2fc3046fff738ffe2
:101c20004ff0020a00f07f02039902fa0af210f064
:101c300080030a4404d102f501720392009787e7fa
:101c4000304603920af1070afff722ffeae7b328ba
:101c50000bd13046fff71cff020300f00f0002f427
:101c60007022013001230243b8e700f0fc03b42bdb
:101c700082d000f007020132012342f40022ade7d6
:101c8000c02b45d1c6280ad13046fff701ff020319
:101c900000f00f0002f4702201300323e3e7c728ad
:101ca0000cd13046fff7f4fe024600283ff464af43
:101cb00010f0f0037ff460af042190e700f0f80328
:101cc000c02b06d100f00f020132032342f4202280
:101cd00084e7c8280dd13046fff7dafe00f0f002a5
:101ce00000f00f0010320130052340ea02320121da
:101cf00075e7c9287ff440af3046fff7c9fe0203fd
:101d000000f00f0002f47022013005230243eee7d9
:101d100000f0f803d02b7ff42faf00f00702013260
:101d2000052342f40022e2e71fb5c36c5a68120291
:101d3000019203f10802029203220c468df80c2056
:101d4000db798df80d3001a92046fff7c5fe04b000
:101d500010bd08b5fff7bffe806c08bd08b5fff7e2
:101d6000bafec06cc379023300eb830008bd08b52e
:0a1d700004f0e8f908b5fff7faffe8
:020000040000fa
:020000040040ba
:021d7a00fee782
:020000040000fa
:020000040040ba
:101d7c002de9f04f85b00b7803f07f03012b05d0d4
:101d8c00212b00f00e8105b0bde8f08f0446914a7e
:101d9c00542303fb00f3d018d7580d79067a4b78ef
:101dac000a2b00f0e2800b2bedd191f802808df81c
:101dbc000f80b54257d06b1e9e1bf6b2c8ebc80302
:101dcc00542202fb04f202eb430303eb4613814a59
:101ddc00134493f81a90b9f1000f72d0b8f1000fb8
:101dec006fd0c8ebc803542202fb04f202eb43038e
:101dfc0003eb4613774a13441a7fd98b39b1012967
:101e0c0034d901235b009bb29942fbd8194600914f
:101e1c0001230021384603f0e5feb9f1020f27d06b
:101e2c00542303fb04f303eb46136a4a13440122c5
:101e3c001a769df80f10674b542202fb04f202eb4a
:101e4c0046161e44f1758df80c508df80d10134488
:101e5c009d6b002303aa02212046a8470021384687
:101e6c0003f0e3fb8fe780f80980f7e70121cee769
:101e7c0058494feac800a0eb0802542303fb04f3b3
:101e8c0003eb42024fea461c62440a4492f82220b9
:101e9c00a0eb080003eb400363440b44998c39b16d
:101eac0001290cd901235b009bb29942fbd819463e
:101ebc00009101230021384603f094feb0e7012184
:101ecc00f6e7542303fb04f303eb4613414a134494
:101edc001b7e012badd111467001542202fb04f381
:101eec0002461844084490f81780c8ebc80003eb6e
:101efc004003134401eb030999f81ca051463846e2
:101f0c0003f08fff5146384603f07cff99f81a30e6
:101f1c00022b09d0542303fb04f303eb46132d4a85
:101f2c00134400221a7684e74feac80aaaeb080386
:101f3c004ff0540909fb04f909eb43034fea461b24
:101f4c005b44244a134493f82210384603f069ff8b
:101f5c00aaeb080809eb4809cb441e4a93449bf8aa
:101f6c002210384603f04effd4e7b54213d0013da2
:101f7c00ad1bedb2542303fb04f404eb4515154cd7
:101f8c002544eb7d8df80f3001220df10f01384601
:101f9c0003f028fbf7e60f4a542303fb0424637a6f
:101fac00f0e70c4a542303fb00239d6b002d3ff4f8
:101fbc00eaae4b78012b07d0022b7ff4e4ae002362
:101fcc000a460621a847dee600230a460521a84753
:081fdc00d9e600bfc8a34020b4
:020000040000fa
:020000040040ba
:101fe40038b5774b18600023764c2360764c236019
:101ff4000378002b00f0a28090f90130022b40f00e
:102004009d80002940f09680c1696e4b19606d4b2c
:102014001968002900f092804a77012a01d00b69df
:102024004b61144645681db18268096a2046a84779
:10203400644b1b689a6964490a6064490b60002117
:102044001971996119775e4b196891f83e30012b2b
:1020540079d0023bdbb2012b70d88a61cb6a013b99
:10206400cb62002a6ad014690223137791f93030c5
:10207400b3f1ff3f2ed091f83d30102b00f09d803e
:10208400202b0cbfa5082546514b5b6913f4803ff8
:1020940014d0002c12dd916801f01f031c44bff31f
:1020a4004f8f0b464a482144c0f868322033ca1a7d
:1020b400002af9dcbff34f8fbff36f8f404b1868d2
:1020c400414b19682b46426b896890f8300003f045
:1020d4002df92c463a4b196891f83e30032b2dd13b
:1020e40091f93100b0f1ff3f28d0374b1a682346ed
:1020f400d268896bc0b203f019f9354b5b6913f4ec
:10210400803f1bd0002c19dd2f4b1b68d96801f0d0
:102114001f031c44bff34f8f0b462d482144c0f8c6
:102124005c322033ca1a002af9dcbff34f8fbff3a5
:102134006f8f03e00139c9b2012900d938bd816923
:10214400204b196063e7ca618b6a013b8b62002aea
:10215400f4d014690223137791f93100b0f1ff3ff1
:10216400ecd091f83d30102b25d0202b08bfa408cb
:102174002346d268896bc0b203f0d8f8144b5b696c
:1021840013f4803fdad0002cd8dd0f4b1b68d968dc
:1021940001f01f031c44bff34f8f0b460c4821442e
:1021a400c0f85c322033ca1a002af9dcbff34f8f1f
:1021b400bff36f8fc2e76408dae7650864e700bf1e
:1021c40094a6402090a6402098a640208ca64020ab
:0421d40000ed00e03a
:020000040000fa
:020000040040ba
:1021d8002de9f84f80460e4699469500284602f0ac
:1021e8000dff002800f0c1800746542002f006ffca
:1021f8000446002857d007632a46a521384603f02d
:102208007fff276b002e54d0337884f8343053b1d5
:10221800334604f134010f3613f8012f01f8012f6a
:102228000ab1b342f8d1002384f843300a9e042e41
:1022380028bf0426e66266644ff0000bc4f848b075
:1022480004f1040a504603f0a7ff04f1180003f054
:10225800a3ff2461c6f10506a6616462c4f84cb008
:1022680084f850b0043d3d444a46414625f00700f5
:1022780003f054fc20600b9b03b11c6003f05efd6f
:102288003e4a1368013313603d4b1b68abb13d4bad
:102298001b68bbb93a4b1b68da6ae36a9a4211d8e1
:1022a800374b1c600ee0384603f04fff4ff0ff300d
:1022b8005de0002384f83430b8e7314b1c601368c4
:1022c800012b28d0304a136801331360e06a2f4a83
:1022d8001168012383400b43136000eb80005146d3
:1022e8002b4b03eb800003f06afe03f0bbfe254b8b
:1022f8001b68002b3dd0224b1b68da6ae36a9a42be
:1023080039d2244b4ff080521a60bff34f8fbff37e
:102318006f8f01202be01e4d284603f045fe05f186
:10232800140003f041fe05f1280003f03dfe05f11d
:102338003c0003f039fe05f1500003f035fe164e5f
:10234800304603f031fe154d284603f02dfe1448a3
:1023580003f02afe134803f027fe134803f024fe77
:10236800124b1e60124b1d60ace74ff0ff30bde80a
:10237800f88f0120fbe70120f9e700bfa8a640205d
:102388009ca64020cca64020b4a64020b8a6402059
:1023980004a3402004ed00e0c4a54020d8a54020b7
:1023a800eca5402014a6402000a64020a0a640206e
:0423b800a4a6402077
:020000040000fa
:020000040040ba
:1023bc0000f1340191e838009c46a6464cf8045dc7
:1023cc0090e8ff0fe54600bd90ec210b704700bf75
:1023dc0080ec210b704700bf90ec200b704700bfc6
:1023ec0080ec200b704700bfd0ec200b704700bf77
:1023fc00c0ec200b704700bff0ec0201f0ec0211b6
:10240c00f0ec0221f0ec0231f0ec0241f0ec025164
:10241c00f0ec0261f0ec0271f0ec0281f0ec029154
:10242c00f0ec02a1f0ec02b1f0ec02c1f0ec02d144
:10243c00f0ec02e1f0ec02f1704700bfe0ec0201bd
:10244c00e0ec0211e0ec0221e0ec0231e0ec0241a4
:10245c00e0ec0251e0ec0261e0ec0271e0ec028194
:10246c00e0ec0291e0ec02a1e0ec02b1e0ec02c184
:10247c00e0ec02d1e0ec02e1e0ec02f1704700bfcd
:10248c00b0fc0181b0fc0191b0fc01a1b0fc01b128
:10249c00704700bfa0fc0181a0fc0191a0fc01a130
:1024ac00a0fc01b1704700bfec4600b52de900500f
:1024bc002de9ff1f4ff000032de90c0001a9fef7d9
:1024cc003af8ddf840e012b0704700bfec4600b5ba
:1024dc002de900502de9ff1f4ff000032de90c00f2
:1024ec0001a9fef758f8ddf840e012b0704700bfc4
:1024fc00ec4600b52de900502de9ff1f4ff000030d
:10250c002de90c0001a9fef766f8ddf840e012b0e9
:10251c00704700bfec4600b52de900502de9ff1fb8
:10252c004ff000032de90c0001abfef72af8ddf8a3
:10253c0040e012b0704700bfec4600b52de90050ea
:10254c002de9ff1f4ff000032de90c0001aafef747
:0c255c0092f8ddf840e012b0704700bfbc
:020000040000fa
:020000040040ba
:1025680010b5634b1b6a13f4807f04d0614aff21c6
:1025780011770121517713f0010106d05c4a082038
:102588001060042010600720906213f4007f02d0ce
:10259800584a01201077574a527f8ab9554a127f04
:1025a80052b2013a032a0bd8dfe802f002541c7831
:1025b800504bdb6883b100214e4b188801f0bcfffb
:1025c8004c4b1b7f5bb2b3f1ff3f6dd0494b1b7f78
:1025d8005bb2052b78d010bd0121464b188801f05d
:1025e800abffede713f0040fead0424b5a69db6802
:1025f800013b9a4209d03f4b5968501c58618a5c8c
:102608003b4b5a633a4b1b6adae73a4b1b699bb957
:10261800384b5968501c58618a5c354b5a63022202
:102628001a6004229a621b6a13f0010f314b14bf1f
:10263800052204221a77e5e772b62d4a042393622d
:102648002c4b586859694c1c5c61435c536303f01c
:1026580059f9d7e713f0020fb2d0264a1369023ba3
:1026680092699a4216d0224b1c6b224b9868996942
:102678004a1c9a6144541b699a42a1d11c4b0222fc
:102688009a621b6a13f0010f1a4b14bf0522042229
:102698001a7795e7164b02221a60e4e700298fd0d3
:1026a800144b05221a778be7124a00231377104b35
:1026b800072199620821196004211960136a002b07
:1026c80084d0506a984781e70a4b00225a771a77d4
:1026d800074a0721916208211160042111601b6ad1
:1026e800002b3ff478af034a506a984773e700bf5e
:0826f8000080014054a54020c0
:020000040000fa
:020000040040ba
:1027000010b5634b1b6a13f4807f04d0614aff212c
:1027100011770121517713f0010106d05c4a08209e
:102720001060042010600720906213f4007f02d034
:10273000584a01201077574a527f8ab9554a127f6a
:1027400052b2013a032a0bd8dfe802f002541c7897
:10275000504bdb6883b100214e4b188801f040ffdd
:102760004c4b1b7f5bb2b3f1ff3f6dd0494b1b7fde
:102770005bb2052b78d010bd0121464b188801f0c3
:102780002fffede713f0040fead0424b5a69db68e4
:10279000013b9a4209d03f4b5968501c58618a5cf2
:1027a0003b4b5a633a4b1b6adae73a4b1b699bb9be
:1027b000384b5968501c58618a5c354b5a63022269
:1027c0001a6004229a621b6a13f0010f314b14bf86
:1027d000052204221a77e5e772b62d4a0423936294
:1027e0002c4b586859694c1c5c61435c536303f083
:1027f000a7f8d7e713f0020fb2d0264a1369023bbd
:1028000092699a4216d0224b1c6b224b98689969a8
:102810004a1c9a6144541b699a42a1d11c4b022262
:102820009a621b6a13f0010f1a4b14bf052204228f
:102830001a7795e7164b02221a60e4e700298fd039
:10284000144b05221a778be7124a00231377104b9b
:10285000072199620821196004211960136a002b6d
:1028600084d0506a984781e70a4b00225a771a773a
:10287000074a0721916208211160042111601b6a37
:10288000002b3ff478af034a506a984773e700bfc4
:08289000000006407ca5402079
:020000040000fa
:020000040040ba
:102898005e4a4ff48e7303fb002393f94430002bf8
:1028a80040f3b28070b504464ff48e7303fb0023e7
:1028b80093f8cd30022b16d0032b47d0012b00d034
:1028c80070bd4ff48e7303fb00231b6dd3f80438df
:1028d80013f4804ff4d04ff48e7000fb04200223d1
:1028e80080f8cd30ece7494a4ff48e7303fb0023a0
:1028f80093f85430012b21d0444a4ff48e7303fbd4
:10290800042393f95530002b0cdb590903f01f03fe
:10291800012202fa03f33e4a01f1600042f8203036
:1029280042f82130394b4ff48e7000fb04300223fb
:1029380080f84430032380f8cd30c1e781b24ff4ea
:102948008e7000fb042002f093fcd5e72f4a4ff469
:102958008e7303fb0023d3f8d430002bb0d04ff490
:102968008e7303fb002393f85450012da8d14ff424
:102978008e7303fb0023d3f8dc301bb3984706465d
:10298800224a4ff48e7303fb042393f8d830834212
:1029980096d0012820d01d4a4ff48e7303fb0423e0
:1029a80093f8e03043bb4ff48e7505fb0425d5f84a
:1029b800d43000220921d5f8d0009847012385f8a2
:1029c800e03019e0114a4ff48e7303fb002393f8ab
:1029d800d830012b3ff474af0c4b4ff48e7606fbc6
:1029e8000436d6f8d43000220821d6f8d00098470b
:1029f800002386f8e0302e46044b4ff48e7000fb1f
:102a0800043080f8d8605be7704700bf58a14020c9
:042a180000e100e0f9
:020000040000fa
:020000040040ba
:102a1c0008b54f4b98474f4b9847eff3108172b660
:102a2c004d4ad2f8883043f47003c2f88830bff3b3
:102a3c004f8fbff36f8f01b962b6484b484a5a604b
:102a4c009a6812f0010ffbd0444bdb6813f4c07f83
:102a5c0013d0444b0c221a60404b434a5a609a687c
:102a6c0012f0010ffbd03d4b404a5a609a6812f0ad
:102a7c00010ffbd03e4b3f4a1a60bff34f8fbff3a1
:102a8c006f8f354cd4f8903223f00103c4f8903298
:102a9c00d4f8943223f00103c4f89432bff34f8f6f
:102aac00bff36f8f01f05aff334b23f07f03a3600a
:102abc00324b9847636913f4003f12d1bff34f8f29
:102acc00bff36f8f0022c4f85022bff34f8fbff3b8
:102adc006f8f626942f400326261bff34f8fbff3b4
:102aec006f8f1d4b5b6913f4803f29d11a4b002269
:102afc00c3f88420bff34f8fd3f88030c3f3c906db
:102b0c00c3f34e335a0143f6e075134802ea050449
:102b1c00334644ea8371c0f86012013bb3f1ff3fc6
:102b2c00f7d1203a12f1200ff0d1bff34f8f0a4aa0
:102b3c00536943f480335361bff34f8fbff36f8fef
:102b4c000f4b98470f4b984703f0effafee700bf87
:102b5c007b5640007b56400000ed00e0000c0e4020
:102b6c000d00005a88a640200c08005a0c07005a89
:102b7c0000180e40010000a500004000a9554000bf
:082b8c007b5640007b5640001f
:020000040000fa
:020000040040ba
:102b9400f0b49df810c09df814501668524f542498
:102ba40004fb0074a6645268626400222265e26435
:102bb400052d5ed0242d38d0042d01d0f0bc7047f3
:102bc400542202fb00f2bd18b9506860069a52798b
:102bd400012af3d1069a9279012a15d0022aedd15d
:102be400069a14794049013b542202fb00f00a186a
:102bf400127a9b1adbb2ccebcc0c00eb4c0000eb52
:102c0400431008448476d9e7374a542303fb002051
:102c1400002380f84030069b9b780372069b1b7947
:102c2400003318bf01230375c8e72f49542202fb60
:102c3400001292f8402012f0010fbfd1542202fb7f
:102c44000012127a9a42b9d1069b9b78012bb5d116
:102c5400542303fb0010012383728375069bb3f88e
:102c64000330838190f8403043f0010380f8403012
:102c7400a4e7591e1c4c542202fb00f2a5182d7a1d
:102c8400491bc9b202eb41122244927d9a4295d16a
:102c9400069b9d789c88db7813f030030fd1124e8d
:102ca4004feacc07a7eb0c02542303fb00f000eb24
:102cb400420349010b4433441d77dc837ee7102b28
:102cc4007ff47caf084e4feacc07a7eb0c025423e9
:102cd40003fb00f000eb420349010b44334483f847
:0c2ce40022509c846ae700bfc8a3402077
:020000040000fa
:020000040040ba
:102cf0002de9f04184b0044601914ff000084646aa
:102d00004546504f49e0013ba36323684bb123691b
:102d10005bb903f0abf94ff00108404604b0bde8e1
:102d2000f08103f0bff8a060f1e704f1100002f0b9
:102d300015f80028edd0434b4ff080521a60bff3d6
:102d40004f8fbff36f8fe4e703f090f94ff0000867
:102d5000e3e702a803f0daf829e084f8445032e00f
:102d600084f8455035e002f0edffa06801f094fbd7
:102d7000804603f07bf93ce0204601f0b9fe00f00c
:102d8000c5fe09e0204601f0b3fe00f0bffe20467c
:102d900003f024f9002840d1012602f0d3ffa36bf1
:102da000002bb0d1019b002bced0002ed1d003f050
:102db0005df903f099f902f0c5ff94f844305bb275
:102dc000b3f1ff3fc9d094f845305bb2b3f1ff3f98
:102dd000c6d003f04bf901a902a802f07bfa002843
:102de000d0d1204603f0faf80028c5d02368002b84
:102df000b9d0019904f1240003f046f8204601f00f
:102e000077fe00f083fe0028c6d14ff080533b6070
:102e1000bff34f8fbff36f8fbee7b8f1000f3ff4e2
:102e20007caf02f08fff616a19b1236b1968c1f1a1
:102e30000501a06801f01cfe03f018f94ff000082e
:082e40006be700bf04ed00e0a8
:020000040000fa
:020000040040ba
:102e4800f0b401f00f06052e00f28b80a3f1080400
:102e5800a4b2b4f57e7f00f28780b0f1ff3f00f0a6
:102e68008680076d082b38d9082500240134e4b280
:102e78006d00adb2ab42f9d806f1400550f8250017
:102e88006ebb00250560838082710121c1710572c6
:102e9800c56003828274c1740175fb690b43fb61d1
:102ea800240104f0700444f00204c7f800414ff410
:102eb8008023c7f8f0314ff40023c7f82032d7f841
:102ec800303113f4802f55d00623c7f8f0314ff472
:102ed8008053bb612846f0bc70470024cce749b258
:102ee800cd0f4ff0000cc0f800c0838082714ff006
:102ef800010c80f807c00572fb690cfa06f0034361
:102f0800fb611f4b9b5cdb0203f4c053240104f0fc
:102f180070041c4344ea052444f0020407eb8603ca
:102f2800c3f80041624515d04ff48022c3f8f02160
:102f38004ff40022c3f82022d3f8302112f4802f56
:102f48001bd0002902db0222c3f8f0210003b8617c
:102f58000020c0e7d3f8002142f40052c3f8002152
:102f6800e2e76ff07b00b6e76ff07000b3e76ff051
:102f78007c00b0e76ff07500ade76ff07500aae769
:042f8800bc614000e8
:020000040000fa
:020000040040ba
:102f8c003f4a116a3f4b0b43136213469a6e12f081
:102f9c00010ffbd03a4a116a3b4b0b4313621346a9
:102fac009a6e12f4803ffbd0354a116a374b0b43b3
:102fbc00136213469a6e12f4003ffbd030490b6a31
:102fcc00334a1a40334b13430b620b469a6e12f47e
:102fdc00003ffbd02a4b304a9a629a6e12f0020fd5
:102fec00fbd02e4b00221a6303f500734ff47102d1
:102ffc00da619a6e12f0400ffbd0214a136b23f466
:10300c000053136313469a6e12f0080ffbd01c4a40
:10301c00136b23f07003136313469a6e12f0080fb0
:10302c00fbd0174a136b23f4407343f48073136380
:10303c0013469a6e12f0080ffbd0114a136b23f053
:10304c00030343f00203136313469a6e12f0080f46
:10305c00fbd00b4b40f601129a6320221a60104ae7
:10306c00c3f80c210f49d1f8182142f40012c1f811
:10307c0018210d4a1a610d4ac3f80021704700bf90
:10308c0000060e4001ff3700000037010800370032
:10309c008fffc8ff20003700013f182000040e40ae
:1030ac004514103000800840000c09000402000494
:020000040000fa
:020000040040ba
:1030bc002de9f04784b00446884601921d464ff036
:1030cc0000094e46434f39e02a464146204601f05e
:1030dc007bfe636a73b938b13e4b4ff080521a6075
:1030ec00bff34f8fbff36f8f02f0baff012004b014
:1030fc00bde8f08704f1240001f02afe0028f3d08b
:10310c00344b4ff080521a60bff34f8fbff36f8f69
:10311c00eae702f0a5ff0020e9e702a802f0f0fec2
:10312c001ae084f8446023e084f8456026e02046e9
:10313c0001f0d8fc00f0e4fc4ff0010902f0fcfdba
:10314c00a26be36b9a42bfd3022dbdd0019b002b27
:10315c00dfd0b9f1000fe0d002f082ff02f0beff29
:10316c0002f0eafd94f844305bb2b3f1ff3fd8d0e3
:10317c0094f845305bb2b3f1ff3fd5d002f070ff4d
:10318c0001a902a802f0a0f8e8b902f0d5fdd4f824
:10319c0038a0d4f83c9002f063ffca45c7d101991e
:1031ac0004f1100002f06afe204601f09bfc00f0d6
:1031bc00a7fc0028c0d14ff080533b60bff34f8f6a
:1031cc00bff36f8fb8e7204601f08cfc00f098fc41
:0831dc0000208ce704ed00e087
:020000040000fa
:020000040040ba
:1031e400002840f08480434b1b7813b14ff0ff302c
:1031f400704770b50d464e683e4c04f1580002f01d
:103204008ffe0123237084f844302665aa7a84f85b
:103214005420697a84f84c10374be36595f90830eb
:1032240084f85530eb68c4f8fc306b69c4f8f430aa
:10323400ab69c4f8f0302b69c4f8f830002363702c
:10324400c4f8d43084f8d830e869c4f8dc0084f8d1
:10325400e030012a0cd0022a38d0284a136f43f4f4
:1032640080231367234b012283f8cd20002070bdf7
:1032740039bb33683360224bc6f80038d6f80038bf
:1032840043f40043c6f800381a4b93f8b830032bc4
:1032940033680cbf43f4805323f480533360d6f86f
:1032a400003823f48043c6f80038d6f8043813f401
:1032b400804ffad0d6f8003843f48043c6f800387b
:1032c400cbe7336843f480633360d4e7d6f800383f
:1032d400c6f80038d6f8003843f40043c6f800387e
:1032e400d6f8003823f48043c6f80038b5e74ff029
:1032f400ff30704758a1402074a2402000060e40c1
:0433040000010002c2
:020000040000fa
:020000040040ba
:1033080070b582b004460d4649784b1e082b00f272
:103318008180dfe803f05e7f657f057f7f7f120095
:10332800037843f080030370ab7880f8ac30002159
:10333800204602f07cf902b070bd6b8823b9c278d0
:1033480002f00702052a2cd094f8ad20dbb29a428d
:1033580062d094f8ae2082b1d4f8b060331f013a3d
:10336800d2b206eb820653f8042f5079a978884226
:1033780008bfc4f8b420b342f5d16b8884f8ad30e7
:10338800204601f0cdfde378052262f30203e370e5
:103398006b888df8043094f8d530012b0fd00021bc
:1033a800c6e70b2380f8b83002f016f8002184f83d
:1033b800ad10e378042262f30203e370b8e7d4f8af
:1033c800d8305bb3d4f8dc2001a90a209847002143
:1033d800aee76b88012babd1002180f8c010a7e7be
:1033e8006b88012b03d0022b05d00121a0e780f8c0
:1033f800c03000219ce7037803f00e03022b01d0b4
:10340800012195e76b798370437843f0010343709a
:1034180000218de701218be7002189e7002187e75b
:020000040000fa
:020000040040ba
:103428002de9f041c268037803f00e03022b5ad04d
:103438008b78147c9c4254d95269002a51d052f896
:103448002360002e4dd004467588cb889d4228bf46
:103458001d46012380f84031402d4ed9403d0223be
:1034680080f8403100f1ee083346414606f1400e3f
:10347800d3f800c05f689868da68c1f800c04f6088
:103488008860ca60103310317345f1d1072384f87e
:10349800ef3005f03f03002b0cbf0223012384f813
:1034a8007430c4f830814023c4f834310023c4f8a0
:1034b8003c31c4f84441d4f8e8309b6b04f5987269
:1034c8008021e069984740366666a566194b2367f0
:1034d800a467d4f8e8309b6b04f164028021e069aa
:1034e8009847bde8f0818b7814799c42f9d99268a5
:1034f800002af6d052f82360a3e700f1ee072a4627
:103508003146384602f0d8fc072384f8ef30c4f877
:103518003071c4f83451074bc4f83c31c4f8444105
:10352800d4f8e8309b6b04f598728021e0699847dd
:08353800d7e700bf415140003c
:020000040000fa
:020000040040ba
:103540002de9f047384b1b68002b67d1374b1f68bc
:1035500001371f60bfb1364b1b68bb4220d9002525
:10356000344b1b68db6a03eb83039b00324ad3585e
:10357000022b28bf0125314b1b68002b18bf0125ea
:103580002846bde8f0872e4a11682e4b1868106057
:1035900019602d4a13680133136002f0adfadae7bf
:1035a0000025dff89c80dff8a890dff88ca021e0f0
:1035b0001f4b4ff0ff321a60d2e71d4a1360cfe76e
:1035c00004f1180002f027fbe06ad9f8002001237b
:1035d00083401343c9f8003000eb800031460aeb0a
:1035e000800002f0f0fc134b1b68e26adb6a9a422f
:1035f00028bf0125d8f800301b68002bd8d0d8f898
:103600000030db68dc6863689f42d6d3261d3046f5
:1036100002f001fba36a002bd2d1d5e70b4a136855
:10362000013313600025abe7b0a64020d0a64020b0
:10363000c0a640209ca6402004a34020d4a6402041
:10364000a0a64020a4a64020c4a64020c8a6402092
:04365000b8a64020b8
:020000040000fa
:020000040040ba
:10365400f8b501f00f06102918bf052e8cbf4ff0e6
:10366400010c4ff0000c6dd8b0f1ff3f6dd00d464a
:103674000446076d90f8b030d3b1102d25d0002e3c
:103684003dd1d4f80031da7922f00102da71da7c22
:1036940022f00102da74fb6923f00103fb6194f860
:1036a400b030012b02d0bcf1000f38d10020f8bd9e
:1036b4004ff6ff71583002f0c7fb012848d194f946
:1036c400550001f0fbff8446d7e7fa69224b13400b
:1036d400fb61d4f80031da7922f00102da71da7c84
:1036e40022f00102da74d4f8043103f13c01da79ee
:1036f40022f00102da710c339942f8d1cfe706f1d6
:10370400400354f82320d37923f00103d371fb69d8
:10371400012202fa06f623ea0606fe61bfe794f9df
:103724005530002b08db590903f01f03012202fa6c
:1037340003f30a4a42f8213004f1580002f0fcfb7a
:103744000020b4e76ff07b00b1e76ff07c00aee7d8
:103754006ff07e00abe700bf00fcffff00e100e07c
:020000040000fa
:020000040040ba
:1037640070b582b000238df807300e2901d002b065
:1037740070bd14460646364b4ff4aa7505fb00355a
:10378400d388a5f8e030d5f8e8301b6c8021e869cf
:103794009847237803f01f03032be8d8dfe803f0ee
:1037a40002222852237813f060020cd113f0800f08
:1037b40004d121462846fff7a5fdd8e7214628462f
:1037c40000f014fad3e7402a06d0202acfd10121f1
:1037d400284601f02effcae722460e21284602f0b1
:1037e40073f9c4e722462179284601f047febee773
:1037f400217951b9237813f0600f1cd122469df82a
:103804000710284601f06bfab1e70df107022846cc
:1038140001f096ff0e4b4ff4aa7202fb0636f378c2
:1038240003f00703052b01d10028e3d10121284629
:1038340001f0fffe9be722469df80710284601f0a1
:103844001dfe94e722460e21284602f03df98ee73c
:0438540004a040206c
:020000040000fa
:020000040040ba
:1038580038b590f9083013f1020f3cd00546446999
:10386800022b07d04268002a3cd1002184f8c410fa
:103878000f201ae094f8c4305bb1d4f8d03043b1cb
:10388800d4f8d850ab4227d000220c21b4f8c80095
:103898009847012384f8c430274bc4f8d030238bd1
:1038a800a4f8c83004f124010e20d4f8d030d4f89c
:1038b800d850ab423bd00a460146b4f8c8009847f6
:1038c8004023c4f88c30d4f8e8309b6b04f18802ac
:1038d8000021e069984738bdd4f8dc2000210c208d
:1038e800a847d6e794f8c430f3b194f8c53094f8f3
:1038f800c610994202d800210d20d6e7d4f8cc0092
:1039080004f12401184402f0d7fa6b6894f8c50052
:103918001844c3b284f8c53094f8c6000021984210
:103928008cbf01200d20c0e700210120bde7d4f89d
:0c393800dc20a847c4e700bf6537400052
:020000040000fa
:020000040040ba
:103944000902af000401008032080b0002010020cc
:1039540000090400000001012000092401000208fc
:1039640048000008240a280307000008240b11015a
:1039740028030011240202010100110200000000ca
:10398400000000001224060a0203000000000000e8
:103994000000000000000c2403140103000a1100bd
:1039a40000000904010000010220000904010102d1
:1039b40001022000102401020001010000000200a5
:1039c4000000000006240201041807050105000494
:1039d40001082501003500000007058111040004d9
:1039e400080b0202020201000904020001020201a2
:1039f4000005240020010424020205240602030514
:103a040024010003070583031000020904030002d4
:103a14000a00000007050402400000070585024073
:043a2400000000bfdf
:020000040000fa
:020000040040ba
:103a28000902af000401008032080b0002010020e7
:103a38000009040000000101200009240100020817
:103a480048000008240a280307000008240b110175
:103a580028030011240202010100110200000000e5
:103a6800000000001224060a020300000000000003
:103a78000000000000000c2403140103000a1100d8
:103a880000000904010000010220000904010102ec
:103a980001022000102401020001010000000200c0
:103aa80000000000062402010418070501050004af
:103ab80001082501003500000007058111040004f4
:103ac800080b0202020201000904020001020201bd
:103ad800000524002001042402020524060203052f
:103ae80024010003070583031000020904030002f0
:103af8000a0000000705040200020007058502000d
:043b0800020000bff8
:020000040000fa
:020000040040ba
:103b0c002de9f04102f018f92d4b1a68013a1a60b0
:103b1c001b68002b4dd12b4b1b680bb9002449e0c3
:103b2c000024294e294fdff8b880336803b3f368bb
:103b3c00dc6804f1180002f068f8251d284602f034
:103b4c0064f8e06a3a680123834013433b6000eb5e
:103b5c008000294608eb800002f02ffa1c4b1b68f2
:103b6c00e26adb6a9a42e0d31a4b01221a60dce764
:103b7c000cb101f0bbff184b1c686cb1154e012544
:103b8c0001e0013c05d0fff7d5fc0028f9d03560e9
:103b9c00f7e7114b00221a600e4b1c6854b10f4b07
:103bac004ff080521a60bff34f8fbff36f8f012419
:103bbc0000e0002402f054fa2046bde8f08100bf7a
:103bcc00b0a64020a8a64020eca54020b8a64020d6
:103bdc009ca64020d4a64020c8a6402004ed00e0be
:043bec0004a34020ce
:020000040000fa
:020000040040ba
:103bf00030b583b004460d46002301934b78062b65
:103c000012d0082b54d0002b37d1a0f8bc30037849
:103c100003f0010390f8c02062f34103024602f86a
:103c2000bc3f0192022047e0c068cb78013b062be5
:103c30004dd8dfe803f00410394c4c2b1d002378dd
:103c400003f00e03022b0cbfc3680368019312201c
:103c5000019991bb11e08b7894f8ae209a420cd96f
:103c6000d4f8b02052f823303bb10193588823e0b8
:103c7000237803f07003102b04d00121204601f0bb
:103c8000dafc22e02046fff7cffb1ee0237803f0aa
:103c90007002102af1d103f00e03022b0cbf036a4d
:103ca000436a01930a20d3e701aa00f0ddffcfe7c2
:103cb00000f1ad03019301200199ea88824228bff7
:103cc000024692b2204601f093fc03b030bd0020c2
:023cd000bee74d
:020000040000fa
:020000040040ba
:023cd200fee70b
:020000040000fa
:020000040040ba
:103cd4002de9f04101f00f06052e5bd8b0f1ff3f4e
:103ce4005bd00446076d06f1400350f8235090f86a
:103cf400b0302bb34ff0000806f17c034ff40022e0
:103d040047f823204ebbeb7943f00203eb716ff0cd
:103d14000201284601f0b4ffeb7c43f00203eb748c
:103d24006ff0020105f10c0001f0aaff94f8b03025
:103d3400012b02d0b8f1000f19d10020bde8f081a9
:103d44004ff6ff71583002f07ff8012828d194f91a
:103d5400550001f0b3fc8046cee7eb7943f0020353
:103d6400eb716ff00201284601f08affdee794f957
:103d74005530002b08db590903f01f03012202fa16
:103d840003f3094a42f8213004f1580002f0d4f850
:103d94000020d3e76ff07b00d0e76ff07c00cde725
:0c3da4006ff07e00cae700bf00e100e005
:020000040000fa
:020000040040ba
:103db000b0f1ff3f65d02de9f843324a4ff4aa73c2
:103dc00003fb002393f90830002b36dd4ff4aa7370
:103dd00003fb002393f8d430d3b1012b2dd14ff442
:103de000aa7303fb0023b3f81080b8f1000f24d0ae
:103df00024494ff4aa7303fb00f3ca18cf5cc7f33e
:103e0000420792f8ad9055691035002416461fe020
:103e10001c4b4ff4aa7404fb0034d4f8e8301b6840
:103e20000f21b4f8ec009847e061b0f1ff3f04d0f7
:103e3000012384f8d43002232372bde8f88335f8d7
:103e40000c0c98470134e4b21035a3b24345f4d2c8
:103e500015f8103c1f42f5d015f80f3c4b45f1d139
:103e6000f37803f00703052becd1737813f0040ffc
:103e7000e8d155f8043c002be4d0db68002bded100
:083e8000e0e7704704a04020b8
:020000040000fa
:020000040040ba
:103e8800f0b58fb006460f466c462f4d0fcd0fc4c8
:103e98000fcd0fc40fcd0fc495e8030044f8040bf1
:103ea8002170b6f1ff3f4bd0042f02d000200fb095
:103eb800f0bd3046356d0021fff7c8fb2b6803f4d1
:103ec800406343f408432b60eb6943f00103eb6163
:103ed80041f23213c5f800314ff48023c5f8f031b0
:103ee8004ff40023c5f82032d5f8303113f4802f71
:103ef80002d00623c5f8f0310df1ff330dac13489d
:103f08000eaa801ac21813f8011f1170a342f9d122
:103f1800bff34f8f0e4b0f4ac3f868222032c3f805
:103f28006822bff34f8fbff36f8f0123c5f860314d
:103f38004ff48042c5f82022c5f8f0310020b6e7da
:103f48006ff07c00b3e700bf68584000390010a04c
:083f580000ed00e0000010a0e4
:020000040000fa
:020000040040ba
:103f6000f8b501f00f06052e5bd8b0f1ff3f5bd02e
:103f7000044606f1400350f82350036d03eb86031b
:103f80004ff40022c3f820224ff48022c3f8f0211e
:103f900090f8b030dbb1002736bbeb7923f0020399
:103fa000eb716ff00301284601f06cfeeb7c23f00f
:103fb0000203eb746ff0030105f10c0001f062fee7
:103fc00094f8b030012b00d0c7b90020f8bd4ff6ef
:103fd000ff71583001f03aff012828d194f95500bb
:103fe00001f06efb0746d7e7eb7923f00203eb7194
:103ff0006ff00301284601f045fee1e794f95530e2
:10400000002b08db590903f01f03012202fa03f316
:10401000084a42f8213004f1580001f08fff0020d7
:10402000d4e76ff07b00d1e76ff07c00cee76ff054
:084030007e00cbe700e100e097
:020000040000fa
:020000040040ba
:1040380008b52f4b00221a6000284fd12d4b1b7852
:10404800002b4ed12b482a4b1860012303701346ce
:1040580082700a68c2604a690262426291f9042069
:1040680042748362c362c361836191f9182080f846
:10407800302091f9192080f83120ca6942630a6a10
:10408800826391f9242080f83c2091f8252080f85b
:104098003d2080f83e30143001f040ff012823d144
:1040a800134b1a6892f93000b0f1ff3f0cd1104b56
:1040b8001a6892f93100b0f1ff3f0ad10c4b1b6826
:1040c80002225a70002008bd0b49c0b202f010f855
:1040d800ede70a49c0b202f00bf8efe74ff0ff3006
:1040e800f1e74ff0ff30eee74ff0ff30ebe700bfae
:1040f80094a64020b0a44020f9574000115a40002f
:020000040000fa
:020000040040ba
:10410800002957d00a46002854d1f8b58b69002bee
:1041180053d02b4b01241c7200211983d87861f3ea
:104128000200d8709069d860168a1e8255695d6150
:104138001878177f67f3061083f8c01000f0fe00a8
:1041480061f3c7101870587803f12407c3f8887012
:104158004027c3f88c7083f8984083f89010194f63
:10416800c3f89470c3f89c30174f1f679b6783f898
:10417800744000f0fe0061f38200587083f8d41098
:10418800516ac3f8e810528ca3f8ec2086b10024d9
:104198001e4605e010350134e4b2338aa34207d93c
:1041a800eb68002bf6d01b69002bf3d09847f1e79a
:1041b8000020f8bd4ff0ff3070474ff0ff30f8e7b0
:0c41c80004a04020593840004151400044
:020000040000fa
:020000040040ba
:1041d400b0f1ff3f58d038b5037803b938bd044671
:1041e400056d1021fff734fa94f8b030002b3ed05f
:1041f4000020002384f8ed30d5f8003823f4804300
:10420400c5f80038d5f8043813f4804ffad07f236a
:10421400ab601e4b6b612b6843f480732b602b687f
:1042240023f080032b60d5f8003843f48043c5f8ad
:104234000038d5f8003823f40043c5f8003894f862
:10424400b030012bcad00028c8d094f95530002bc7
:1042540008db590903f01f03012202fa03f30c4a95
:1042640042f8213004f1580001f066feb6e74ff63b
:10427400ff7104f1580001f0e7fd0128aed194f973
:10428400550001f01bfab4e7704700bf7ff03ffe12
:0442940000e100e065
:020000040000fa
:020000040040ba
:10429800b0f1ff3f50d038b50546046d90f8b03006
:1042a800002b3cd00020d4f8003843f40043c4f875
:1042b8000038d4f8003823f48043c4f80038d4f820
:1042c800043813f4804ffad0236823f480732360f2
:1042d8001d23a3611c23a360e36843f00103e3608b
:1042e8001023a360d4f8003843f48043c4f800389e
:1042f80095f8b030012b19d0c0b195f95530002b85
:1043080008db590903f01f03012202fa03f30b4ae1
:1043180042f8213005f1580001f00cfe06e04ff696
:10432800ff71583001f08efd012800d038bd95f995
:10433800550001f0c1f9b6e7704700bf00e100e0a1
:020000040000fa
:020000040040ba
:1043480030b583b09df81c5080b95068244ca062e9
:104358001068e0629268226300226263a263e263eb
:10436800204a2264042d03d0052d13d003b030bd9c
:104378001b4a1160089a5279022a04d00a2af5d1f8
:10438800174a1371f2e7089a9279022aeed1144a71
:104398009374ebe7089b9a78d409db7803f003035e
:1043a800022b08d0032be1d1630023440c4c04eb0f
:1043b8004304143405e0013404eb4403084c04ebd3
:1043c80043040846089b998822706180db78009135
:1043d80003f00303002101f007fc01232371c5e763
:0843e8006ca4402040a6402017
:020000040000fa
:020000040040ba
:1043f000244b1b681bb1244b01221a60704710b577
:10440000214b00221a60214b1b681b6b1a68b2f10a
:10441000a53f03d15a68b2f1a53f23d01b4b1868c2
:104420001968343101f0aefd194b1b68b3fa83f300
:10443000dbb2c3f11f03174a9900c81802eb8000d2
:10444000446864684460194402460832944212d0b9
:1044500003eb83030f4a02eb83035b68da680b4bc1
:104460001a6010bd9a68b2f1a53fd7d1db68b3f1ed
:10447000a53fd3d1d8e760680a46064901eb82021e
:104480005060e5e7b0a64020d4a640209ca640207e
:08449000b8a6402004a340205f
:020000040000fa
:020000040040ba
:10449800002849d038b50446c26a24490968c96a5f
:1044a8008a4238d28169002905db20490968c96a2e
:1044b800c1f10501816102eb82021d4901eb820213
:1044c8006169914205d0194a1268d26ae2620120f4
:1044d80029e0251d284601f09afb38b915490b68d3
:1044e800e06a0122824023ea02030b600f4b1b683b
:1044f800d86ae0620f4a1168012404fa00f30b43fa
:10450800136000eb80002946094b03eb800001f0a3
:1045180056fd204607e0054a1268406cd36a984267
:104528002cbf0020012038bd002070479ca64020e9
:0845380004a34020b8a64020b6
:020000040000fa
:020000040040ba
:1045400008b57f281dd9030203f4fe0343f48073ea
:10455000214a5360c0b2d060204b00225a619a6158
:10456000002935d1db68012b0fd01c4b03221a77b1
:104570005a68012159611278174b5a6305225a6211
:1045800008bd0004144b5860e6e7144b1b6963b97f
:10459000124b04221a77596801225a6109780e4b8e
:1045a0005963022119605a62eae772b60b4b5968e7
:1045b0005a69501c58618a5c074b5a631a46136a41
:1045c00013f0050ffbd1044a136a13f0040ffbd05c
:1045d00001f09cf9d4e700bf0080014054a54020c1
:020000040000fa
:020000040040ba
:1045e00008b57f281dd9030203f4fe0343f480734a
:1045f000214a5360c0b2d060204b00225a619a61b8
:10460000002935d1db68012b0fd01c4b03221a7710
:104610005a68012159611278174b5a6305225a6270
:1046200008bd0004144b5860e6e7144b1b6963b9de
:10463000124b04221a77596801225a6109780e4bed
:104640005963022119605a62eae772b60b4b596846
:104650005a69501c58618a5c074b5a631a46136aa0
:1046600013f0050ffbd1044a136a13f0040ffbd0bb
:1046700001f066f9d4e700bf000006407ca54020a9
:020000040000fa
:020000040040ba
:10468000b0f1ff3f35d001f00f01052934d8f8b55e
:104690000446403150f8215090f8b030a3bb00f1ef
:1046a00058064ff6ff71304601f0d0fb012826d1a5
:1046b00094f9550001f004f807466ff0010128460f
:1046c00001f0e0fa94f8b030012b1bd0d7b194f987
:1046d0005530002b08db590903f01f03012202fab1
:1046e00003f30d4a42f82130304601f027fc002048
:1046f00010e06ff07c0070476ff07b0070476ff048
:104700007e0007e0002005e06ff00101284601f07f
:0c471000b9fa0020f8bd00bf00e100e095
:020000040000fa
:020000040040ba
:10471c00002845d110b50e2904d00f2936d00d290b
:10472c002ad010bd1f4b1868137813f0200f16d029
:10473c005378232b1cd8dfe803f016161b1b1b1b0e
:10474c001b1b1b1b1b1b1b1b1b1b1b1b1b1b1b1bad
:10475c001b1b1b1b1b1b1b1b1b1b161616160121c5
:10476c0000f063ffdde70f49002000f03bf9d8e7cc
:10477c00012100f05affd4e70a4b1c6a002cd0d060
:10478c005b6a002208211046a047cae7054b1c6a49
:10479c00002cc6d05b6a002207211046a047c0e758
:0847ac00704700bf6ca440201f
:020000040000fa
:020000040040ba
:1047b4000021204bc3f814111f4a204b1367536781
:1047c400183353601e4b13604ff0ff335365136669
:1047d400c2f89030c2f8a030116153619163c2f8fd
:1047e400181102f50072136053651366c2f8903015
:1047f400c2f8a030116153619163c2f8181102f537
:10480400806211674ff0c050506750606ff0c05025
:10481400106053651366c2f89030c2f8a0304ff0b0
:10482400804313616ff0804050619363c2f81811a4
:10483400704700bf00800840000e0e400280010057
:04484400e57ffeff0f
:020000040000fa
:020000040040ba
:1048480070b504460e461c4b1d681c4b1868043096
:1048580001f0ddf948b9194b1a6819490b68d06a93
:104868000122824023ea02030b60b4f1ff3f00d12a
:104878006eb92c44114b1b685c60a5420ed9114bd4
:1048880018680e4b1968043101f070f870bd0b4bb5
:10489800196804310c4801f092fbf7e70b4b1868d4
:1048a800064b1968043101f061f8094b1b68a342f3
:1048b800ecd9074b1c60e9e7d0a640209ca6402015
:1048c800b8a64020a4a6402000a64020a0a64020cc
:0448d800c0a6402016
:020000040000fa
:020000040040ba
:1048dc0038b5214a542303fb00239b7a0bb3542392
:1048ec0003fb00f3d118cc7dc4ebc40103eb4103f3
:1048fc0013449b7eabb10546542202fb00f202eb43
:10490c004103154a1344197f61b9c4ebc403542203
:10491c0002fb05f202eb43030f4a13449b7e022b6e
:10492c0007d038bd542303fb00f3d05801f079fabb
:10493c00ebe7c4ebc404542303fb05f303eb44047f
:10494c00144494f822100029ebd0542000fb05f0fd
:0c495c00105801f066fae4e7c8a3402000
:020000040000fa
:020000040040ba
:104968001e4b1f4a9342f0b438bf002103d203f80c
:10497800011b9342fbd11b4ad2e9000150ea010313
:104988004ff0000610d09468034602f10c076cb98a
:1049980021b1014403f8016b9942fbd13a46d2e9af
:1049a800000150ea0103eed1f0bc704759b101f1a2
:1049b8000c030c38801a1a443b461c1813f8015b88
:1049c80025709342f9d111f0030318bf012303ebbb
:1049d800910107eb81073a46e1e700bf000040205c
:0849e8000400402010174000fc
:020000040000fa
:020000040040ba
:1049f00038b50c465378232b35d8dfe803f027274a
:104a00003434343434343434343434343434343466
:104a10003434343434343434343434343434121993
:104a2000202c256ab5b1636a00221146a84711e01f
:104a3000256a7db1636a00220121a8470ae0256a40
:104a400045b1636a02320221a84703e001212068d0
:104a500000f0f1fd38bd256a002dfbd0636a0232fb
:104a60000321a847f6e70121206800f0e4fdf1e703
:020000040000fa
:020000040040ba
:104a7000002838d038b50446426c914238bf114600
:104a8000c26a8a4202d0806c012800d038bde1623f
:104a9000a069002802dbc1f10501a16102eb8202dd
:104aa000114901eb820261699142efd1251d28462f
:104ab00001f0b1f838b90d490b68e06a0122824073
:104ac00023ea02030b60e06a084a1168012383406d
:104ad0000b43136000eb80002946034b03eb80007f
:104ae00001f071fad2e7704704a34020b8a6402035
:020000040000fa
:020000040040ba
:104af00070b5054601f026f995f8454064b2002ce2
:104b000011dd6b6a7bb105f1240606e001f034fb90
:104b1000013c64b23cb16b6a2bb1304600f01ef927
:104b20000028f5d0f2e7ff2385f8453001f09efa22
:104b300001f008f995f8444064b2002c11dd2b69ae
:104b40007bb105f1100606e001f016fb013c64b2f2
:104b50003cb12b692bb1304600f000f90028f5d0ac
:0e4b6000f2e7ff2385f8443001f080fa70bdc3
:020000040000fa
:020000040040ba
:024b6e00fee760
:020000040000fa
:020000040040ba
:104b7000002835d038b50446826c013a8264c06a98
:104b8000616c884200d00ab1002038bd251d28463e
:104b900001f041f870b9e26a02eb82039b0011490f
:104ba000cb583bb910480368012101fa02f223ea0d
:104bb00002020260606ce062c0f10503a3610a4a70
:104bc0001168012404fa00f30b43136000eb80002a
:104bd0002946044b03eb800001f0f5f92046d4e7a9
:0c4be0000020704704a34020b8a640202d
:020000040000fa
:020000040040ba
:104bec002de9f04182b0002401941a4d1a4e012790
:104bfc00a04610e0019b13f0010f08d005f8048cbf
:104c0c0055f80c3c1bb155f8081c38469847013434
:104c1c001035022c1bd015f8103c012bf7d1736901
:104c2c0007fa04f11942f2d006eb8413db6d019301
:104c3c00019b13f0700fddd005f8048c55f80c3c7b
:104c4c00002be4d055f8081c02209847dfe702b08f
:0c4c5c00bde8f081b4a5402000800740b6
:020000040000fa
:020000040040ba
:104c6800f0b58f78c669d6f800c09cf80030023bd2
:104c7800dbb25d08012b08d9047e013c94fbf5f4f6
:104c8800e4b2bc4203d20020f0bd0024f9e727b902
:104c9800c2f800c09cf80000f6e7b1f804e0a8b23a
:104ca8000028f1d0bcf80230734512d00cf1020193
:104cb8000124631c9bb2a0420dd01c4631f8025f50
:104cc8007545f6d107fb03f356f8233013601878bf
:0a4cd800dae70123f6e70020d6e733
:020000040000fa
:020000040040ba
:104ce20010b504461179537893b9a0f8bc30d0f8c6
:104cf200e8305b6bc069984794f8bc3060f30003fe
:104d0200214601f8bc3f0222204600f070fc10bd93
:104d1200012b07d0032b12d00c2bf8d1012100f06c
:104d220089fcf4e75388002bf1d1d0f8e830db6a34
:104d3200c06998470021204600f07cfce7e75388d1
:104d4200002be4d1d0f8e8309b6ac0699847002173
:084d5200204600f06ffcdae7d7
:020000040000fa
:020000040040ba
:024d5a00fee772
:020000040000fa
:020000040040ba
:104d5c0038b5c368dc6804f11805284600f055ff27
:104d6c00134b1b68e3b9251d284600f04effe06a83
:104d7c00104a1168012383400b43136000eb800041
:104d8c0029460d4b03eb800001f017f90b4b1b6808
:104d9c00e26adb6a9a4208d90120094b186005e0e7
:104dac002946084801f009f9f0e7002038bd00bf9a
:104dbc00b0a64020b8a6402004a340209ca64020ca
:084dcc00d4a64020eca5402014
:020000040000fa
:020000040040ba
:104dd40070b504461646856b026c5ab903681bb15c
:104de40000200135a56370bd8068fff7bffe002376
:104df400a360f6e76eb9406801f060f86368226c5e
:104e040013446360a268934219d3236863603046f5
:104e1400e7e7c06801f052f8226c5242e368134499
:104e2400e36021688b4202d2a3681a44e2600db1a8
:104e3400022e01d00020d4e7013d0020d1e7304606
:024e4400cfe7b6
:020000040000fa
:020000040040ba
:024e4600fee785
:020000040000fa
:020000040040ba
:104e480038b504460d4600f079ff2268216ce36b03
:104e580003fb01f3d018a0600020a06362605b1a16
:104e68001344e360ff2384f8443084f84530a5b93f
:104e780023691bb901f0f6f8012038bd04f11000d0
:104e8800fff768ff0028f5d0084b4ff080521a60f2
:104e9800bff34f8fbff36f8fece704f1100001f001
:104ea80083f804f1240001f07ff8e3e704ed00e063
:020000040000fa
:020000040040ba
:104eb80080b5164c164f174edff860802368bbb1db
:104ec80000f03cfffb68dd68281d00f0a0fe336899
:104ed800013b33602368013b236001f0c3f8286b72
:104ee80001f033f9284601f030f92368002be7d1a7
:104ef800094b1b68012be1d94ff08053c8f80030eb
:104f0800bff34f8fbff36f8fd8e700bfaca6402029
:104f180014a64020a8a6402004a3402004ed00e0e9
:020000040000fa
:020000040040ba
:104f28002de9f04f85b0d0f8b440678867b3804664
:104f38000026b246b14635460fe094f8029094f840
:104f480003a04146484600f0bdfa06460ae0237829
:104f58001d44adb21c44af4216d994f801b0bbf160
:104f6800040fead0002ef2d0f368002befd0b2681d
:104f7800b0880294cdf804b0cdf800a0d3f800b002
:0e4f88004b464146d847e2e705b0bde8f08f42
:020000040000fa
:020000040040ba
:024f9600fee734
:020000040000fa
:020000040040ba
:104f980010b50446174a4ff48e7303fb0023012211
:104fa80083f8b02093f8543093421bd0114a4ff441
:104fb8008e7303fb042393f95530002b09db5a0940
:104fc80003f01f03012101fa03f360320a4941f893
:104fd8002230084b4ff48e7202fb0434002384f80d
:104fe800b03010bd034b4ff48e7000fb0430fbf75c
:0c4ff800b9fddbe758a1402000e100e01b
:020000040000fa
:020000040040ba
:1050040038b5044610f0070f02d020f00704083426
:1050140001f068f8124b1b687bb1124b1b681c44ef
:1050240049f6f77294420ed8a3420fd3fef76cfdf3
:1050340000f0b1ff0025284638bd094a0a4b23f089
:1050440007031360e9e7fef75ffdf1e7044a15681b
:105054001d44044b1c60fef757fd002debd1e7e720
:0c506400d8a64020dca640200c00402014
:020000040000fa
:020000040040ba
:1050700010b501f029f8fdf789fffff79bfb00f061
:105080006ffa4ff400430f4a5360b03a536000f098
:1050900077fb00f071fd00f091fb0b490020fef75b
:1050a000cbff0a4c60600a490020fff72df8206012
:1050b00008490020fef796f8a06001f063f800f0c0
:1050c00065f910bd00190e402ca5402068a64020af
:0850d000505b4000b05d4000a0
:020000040000fa
:020000040040ba
:1050d80000b583b0124b019300230093802211493d
:1050e8001148fdf775f8012802d003b05df804fbfc
:1050f8004ff0200372b683f31188bff36f8fbff3ad
:105108004f8f62b6094b4ff0ff321a60084b0122ed
:105118001a60084b00221a6000f0faf9e5e700bfb0
:10512800bca6402090614000b94e4000c0a6402077
:08513800cca64020d0a64020c7
:020000040000fa
:020000040040ba
:1051400038b5446990f9083013f1020f2ad00546aa
:1051500094f90030002b0edb637813f0010f1ad0a6
:1051600063786ff300036370d4f8e830db6ca178e8
:10517000e06998470fe0d4f8e830db6894f8ac10a9
:10518000e069984723786ff3c7132370e37804220c
:1051900062f30203e37095f908301bb96b680bb931
:0651a00084f8c43038bda4
:020000040000fa
:020000040040ba
:0851a8000100000001000000fd
:020000040000fa
:020000040040ba
:1051b000eff30980bff36f8f154b1a681ef0100fc5
:1051c00008bf20ed108a20e9f04f10602de909009a
:1051d0004ff0200072b680f31188bff34f8fbff3fa
:1051e0006f8f62b6fff704f94ff0000080f311886b
:1051f00009bc19680868b0e8f04f1ef0100f08bf2e
:10520000b0ec108a80f30988bff36f8f704700bf3e
:045210009ca64020f8
:020000040000fa
:020000040040ba
:1052140070b582b0124d00240194012600962346f5
:105224004ff4806229460f48fcf7d4ff019400969e
:1052340023464ff4806205f114010b48fcf7caffc2
:105244000a4b0193009623464ff4806205f128012e
:105254000748fcf7bffffff73dff02b070bd00bf7a
:10526400dc594000555f40006d5f4000e4a64020db
:0452740099614000fc
:020000040000fa
:020000040040ba
:1052780010b4046d01eb4102114b03ebc203c0f8fb
:105288000031c1eb01130f4901eb830100f5827373
:1052980000f58c7243f8041b0c319342fad1d4f810
:1052a800003843f48043c4f800384ff07e4363610c
:1052b800054b6361082383645df8044b704700bfa6
:0c52c80028a64020f0a4402000f03f0089
:020000040000fa
:020000040040ba
:1052d40070b504460d4600f033fd124b1a682b6876
:1052e400b3f1ff3f16d061680f4800682668864214
:1052f40001d0914213d9501a834203d800232b6062
:10530400012408e09b1a0b442b60204600f0fcfdae
:10531400002400e0002400f0a7fe204670bd012414
:0c532400f9e700bfd0a64020c4a640203e
:020000040000fa
:020000040040ba
:10533000f0b482b000240194124c04eb0014247bde
:105340002cb1114c656a012484402c4218d10e4fb7
:1053500007eb8015ec6d0194019c0a4e06eb0016dc
:105360000124347329666a6623f07f432b67bff3f9
:105370005f8f04fa00f0f861204602b0f0bc70477d
:0c5380000020fae7a4a5402000800740b0
:020000040000fa
:020000040040ba
:10538c00124bd96821f4e0610904090c104a0a4354
:10539c00da60bff35f8f62b6e02283f82320a3f5b7
:1053ac00406383f813234ff40021196083f8222300
:1053bc000421596083f829234ff40071596083f854
:1053cc003a234ff080625a60704700bf00ed00e056
:0453dc000000fa05ce
:020000040000fa
:020000040040ba
:1053e0002de9f0410678c6f3420690f8ad80078ab1
:1053f0004569dfb11035002405e00134e4b2103511
:10540000a3b2bb4212d215f8103c1e42f5d015f8db
:105410000f3c4345f1d155f8043c002bedd05b68bf
:10542000002bead035f80c0c9847e6e7bde8f08190
:020000040000fa
:020000040040ba
:105430001f2938b504460d4604d9162303604ff0e2
:10544000ff3038bd426c12b152f821304bb92046c2
:1054500000f0b6fe2a4601462046bde8384000f07e
:1054600083bc012b0ad05c1c03d1162303600120ee
:10547000e7e7002442f82140084698470020e0e78b
:020000040000fa
:020000040040ba
:1054800038b5044608461546214600f01ff8c0b15d
:10549000c36883b19b6843b1c4f8d0308088a4f856
:1054a000c8002a460e21984738bd2a460e212046bc
:1054b00000f00cfbf8e72a460e21204600f006fb20
:0c54c000f2e70121204600f0b6f8ede70d
:020000040000fa
:020000040040ba
:1054cc00f0b40d8a4a690c78c4f3420491f8ad60cb
:1054dc00cdb1002305e010320133dbb299b2a94201
:1054ec000dd211780c42f6d05178b142f3d19178ab
:1054fc008142f0d8d77839448842ecda00e00022b7
:0a550c001046f0bc70470022fae7d9
:020000040000fa
:020000040040ba
:02551600fee7ae
:020000040000fa
:020000040040ba
:1055180010b50e4b1a6842f460021a601a6842f01d
:1055280060421a6000f04cfb0024094b1c6000f03c
:105538008ffd084a136843f04043136000f02cfbca
:10554800fef752ff00f0d0fb204610bd20ed00e032
:08555800e0a6402034ef00e062
:020000040000fa
:020000040040ba
:1055600010b40d4b00225a609a601a735a619a6106
:105570001a770a4a0a499167712010650121d160a2
:105580001970084cc2f8b840c2f890000220d060f0
:1055900019745df8044b7047a4a5402000800740b3
:0855a0001148012c0128042d23
:020000040000fa
:020000040040ba
:1055a80070b50d4d0d4c641ba4100026a64209d100
:1055b8000b4d0c4cfaf7defd641ba4100026a64226
:1055c80005d170bd55f8043b98470136eee755f80c
:1055d800043b98470136f2e7880140008801400003
:0855e800880140008c01400025
:020000040000fa
:020000040040ba
:1055f00038b50d46144600f071fcc8b1034600f101
:10560000640245668466b0f8e010a14205d0a1426c
:1056100006d9012180f8741002e0022180f874108c
